:1000000002000312001E8820120035120044120064
:10001000B0C2D512001E12014020D5EC011375901C
:10002000FFC2B0D2B012002CE590F8227E0A7FF910
:10003000DFFEDEFA22E875F0C884740AC5F084C4D5
:1000400025F0F922E8343730D70D752C30752D3076
:10005000752E31752F3E22E820E0057430020062D3
:100060007435F52CE8B4C8057430020077B4000587
:100070007420020077742EF52DE8B4C8057431029F
:10008000008FB40005742002008FE9540F4430F54E
:100090002EE8B4C80574200200A8B400057420023C
:1000A00000A8E954F0C44430B430027420F52F2283
:1000B0001200DC7454120109743D120109E52F127B
:1000C0000109E52E120109E52D120109E52C1201A5
:1000D0000974DF120109744312010922C2A7120137
:1000E0002774381200FB740C1200FB74011200FB21
:1000F00074061200FB74801200FB22120117F580B7
:10010000C2A5C2A6D2A7C2A722120117F580D2A506
:10011000C2A6D2A7C2A7227580FFC2A5D2A6D2A727
:10012000A287C2A740F122743011FB7F297E32DE04
:10013000FEDFFA743011FB7F32DFFE743011FB22D8
:10014000E82AFA50010BDC14EA30E7010BEB6520DA
:0D01500060068B20A820D2D57A007B00220B
:00000001FF
